:100000000C9430000C94770B0C94770B0C94770BBA
:100010000C94770B0C94770B0C94770B0C94770B58
:100020000C94770B0C94770B0C94770B0C94770B48
:100030000C94770B0C94770B0C94770B0C94770B38
:100040000C94770B0C94770B0C94770B0C94770B28
:100050000C94770B0060006280006200940016FC34
:1000600011241FBECFE5D8E0DEBFCDBFE4E5F0E050
:1000700040E017C0B591A59135912591059107FDF7
:100080000CC095918591EF01F92FE82F05900D9205
:10009000A217B307D9F7FE0104C01D92A217B30738
:1000A000E1F7E036F40731F70E94A1070C94050B45
:0400B000F894FFCFF2
:1000B400A6E2B0E0E0E6F0E00C94270A98A38F8F64
:1000C4007F8B6E8B288FFB010190F081E02DFA87E6
:1000D400E987FB0102811381248135813B8B2A8BC3
:1000E400808591859AA389A326803780FA01808030
:1000F4009180A280B38020E030E0A901C501B40161
:100104000E94620B87FF06C0B7FAB094B7F8B094A8
:100114008DE204C0598552FF47C38BE2F10180830D
:100124002A893B89215031093C832B8341E050E0EB
:10013400598B488B06C08A899B899C838B83198A37
:10014400188AD501C401BF770097E0E8AE07EFE74E
:10015400BE0799F4F88D2F2FFF0F330B215431096B
:1001640088899989820D931D2A31310518F468E72D
:1001740070E019C06CE770E016C00197A048BF4753
:10018400A8F0488D242F440F330B2154310988895A
:100194009989820D931D2A31310518F460E870E0C5
:1001A40002C064E870E00E94220BEDC220E030E05F
:1001B400A901C501B4010E94620BC12CD12C20E815
:1001C400E22E2FE3F22E1A821982882309F48CC0BE
:1001D4008D829E82AF82B88620E030E040E251E416
:1001E400C701B6010E94700B2B013C01D501C4016B
:1001F40084199509A609B709B7FF07C0B095A0955A
:10020400909581959F4FAF4FBF4F0297A105B105C0
:1002140044F489819A8101969A83898373016201E6
:10022400DBCFA5019401C301B2010E94620B87FDDB
:10023400F0CF8D819E81AF81B8858C199D09AE095F
:10024400BF090196A11DB11D0397A105B10508F4CD
:1002540049C01E821D82A5019401C701B6010E94F6
:10026400670B18160CF040C0E981FA81E43DFE4F9B
:10027400E4F44D815E81452BC1F420E030E040E898
:100284005AE5C501B4010E94700B4B015C0120E0EA
:1002940030E040E85AE5C701B6010E94700B6B01DB
:1002A4007C0181E090E09E838D8320E030E040E299
:1002B40051E4C701B6010E946C0B6B017C01E9811A
:1002C400FA813197FA83E983D501C4018C199D0918
:1002D400AE09BF090196A11DB11D0397A105B10582
:1002E40008F0B9CF46015701288D022E000C330BBC
:1002F400398F288FC9010E942A0B8A8F17FD03C0EA
:100304001E830D8304C046E050E05E834D835A8D06
:10031400573641F4012B09F04CC281E090E09E83F2
:100324008D8347C24A8D4F8706C029813A8137FFA2
:1003340052C256E65F878D819E8101969E838D838E
:100344009F859636B9F4E981FA81F7FF08C0C12C7C
:10035400D12C90E8E92E9FE3F92E1A821982FA8DA6
:10036400F73641F02D813E8149815A81240F351F92
:100374003E832D831C2DDDA2EBA20F2D8B869C8644
:10038400AD86BE861D8A1C8A8C899D89ED81FE817D
:100394008E179F07DCF5212F3DA14BA1502F6B85B4
:1003A4007C858D859E850E946C0B0E94EE052B0139
:1003B4003C010E94550B6B8FA3019201612F7DA11B
:1003C4008BA1902F0E94700B2B853C854D855E85FB
:1003D4000E944E0B9B01AC0150582B873C874D87E4
:1003E4005E8720E030E040E251E4612F7DA18BA1E3
:1003F400902F0E946C0B162F7DA38BA3092F4C8981
:100404005D894F5F5F4F5D8B4C8BBECF20E030E04A
:1004140040EA50E4612F7DA18BA1902F0E94700BC4
:100424002B013C019B01AC016B857C858D859E85F0
:100434000E94620B87FD0DC0A30192016B857C8530
:100444008D859E850E94620B811106C0FB8DF0FD97
:1004540003C0412C512C3201A5019401C301B20106
:100464000E944F0B4B015C0120E030E040E251E47C
:10047400C701B6010E94700B6B877C8B182F092F64
:100484009B01482F592FC501B4010E94670B87FDBA
:1004940014C029813A812F5F3F4F3A8329833F85D6
:1004A400363679F44D815E814F5F5F4F5E834D83B5
:1004B4005B855DA38C898EA30BC0CB86DC8A1E2D45
:1004C4000F2D9F85953639F0EB85EDA3FC89FEA3AE
:1004D400E980FA8006C02B852DA33C893EA3E12C3C
:1004E400F12C48885988C12CD12C1D8A1C8A1C8661
:1004F4001B8649855A85407155275CA34BA32B85E0
:100504003C854D815E812417350734F08C899D89A3
:10051400892B09F494C09FC03201EE89FF8980853C
:10052400918505974816590688F72DA13EA1412FBC
:10053400502FC501B4010E946C0B0E94EE056B8F15
:100544007C8F8D8F9E8F0E94550B6A30710514F03D
:1005540069E070E08BA19CA1892B69F46115710598
:1005640051F49A8D973639F4F7FE05C03601EFEF52
:100574006E1A7E0A38C02C893D89232B99F4F7FE24
:1005840011C03FEF431A530AF101E60DF71D4EE285
:1005940040838B819C8101979C838B83E1E0F0E015
:1005A400FD8BEC8BF101E40DF51D36016114710432
:1005B40031F020E3219331E0631A7108F7CFC601CB
:1005C400840D951D2B813C812C193D092C014FEF85
:1005D400441A540AF101E80FF91F605D6083C901F0
:1005E40001979C838B832B8D3C8D4D8D5E8D6DA1EE
:1005F4007EA1812F902F0E94700BA50194010E946F
:100604004E0B4B015C01B7FAB094B7F8B09420E0FC
:1006140030E040E251E46DA17EA1812F902F0E9431
:100624006C0B6DA37EA3182F092F91E0E91AF10832
:10063400EB85FC853196FC87EB87630160CFF985F8
:10064400F4FF09C0F101E40DF51D8EE280839201EF
:100654002F5F3F4F2901A101440D551D5E834D833A
:10066400FA011082FF85F53609F061C0E9A1FAA10B
:10067400E20DF31D3197108229813A8137FF08C0BA
:100684003195219531093A83298301E010E002C0B4
:1006940000E010E0E9A1FAA13197E20DF31D22E098
:1006A40030E08AE0E82EF12CCF01821993094981C8
:1006B4005A81452B91F089819A81B7010E94760A6B
:1006C400805D829369837A83215031094B815C81F7
:1006D400415051095C834B83E7CF121613065CF338
:1006E400FC013197E20DF31D012B11F42BE201C043
:1006F4002DE220830297B101680F791F288D398D6F
:10070400215431092A31310510F025E601C025E4D0
:10071400FB0120832B813C81225031093C832B83B4
:100724004816590624F48D819E810E94220B398536
:1007340031FF29C030FD27C04B815C81141615069A
:1007440014F5C1010E94E00A820D931D9C01221937
:10075400330948895989241735074CF0FC01208155
:10076400EB81FC81E80FF91F20830197EFCF4B81C8
:100774005C8160E370E088899989820D931D0E94F1
:10078400190B1B8A1A8AC1010E94E00A09851A857D
:100794002A893B89AC01B1018F8D98A10E94EE0892
:1007A400A696E2E10C94430A598553FFC4CC80E237
:1007B400B5CC89819A818C3F9F4F54F0E981FA81AD
:1007C4002D813E81E217F3070CF4AFCD35E604C06A
:0C07D400F5E6FF87CFCD36E63F87CCCDA1
:1007E000AEE0B0E0E6EFF3E00C942A0A4C016B01B6
:1007F0001A8219828FEF9FEF9C838B831E821D824A
:1008000058874F833A872987A12CB12CD6016D9048
:100810007C90F301EA0DFB1D808181110FC0D60190
:10082000ED93FC938081853209F0D3C13F01BFEF86
:100830006B1A7B0AF6017182608219C0853279F3E6
:10084000B401082E000C990B0E94EF074FEFA41A79
:10085000B40ADCCF8C32ACF08D32F9F489819A8104
:1008600081609A8389833196D601ED93FC93D601FA
:10087000ED91FC9180818B3269F789819A81846046
:10088000F0CF803221F489819A818860EACF833267
:1008900051F489819A818061E4CF803321F4898188
:1008A0009A818260DECFB701C6010E9456099E83FD
:1008B0008D8397FF0BC029813A81B1E02B273A83C2
:1008C00029839195819591099E838D8389819A8150
:1008D00080FF03C08D7F9A838983D601ED91FC91BF
:1008E000119780818E3249F43196ED93FC93B701D4
:1008F000C6010E9456099C838B83C6010E94CA09C7
:10090000582ED601ED91FC918081082E000C990B98
:100910000E942A0B893609F443C084F4833609F413
:1009200002C134F4853209F427C18136E1F030C1C7
:100930008436B1F188360CF4D9C02AC1803709F465
:100940009AC03CF48E3609F4BCC08F3609F461C0FD
:100950001FC1853709F440C0883709F476C0833752
:1009600009F016C1F3C0652D70E0A701CE010B960A
:100970000E94EA09892B09F426C1D601ED91FC9168
:100980001197CF0101968D939C932081AE01455F15
:100990005F4FBE016F5F7F4FC4010E94000010C116
:1009A000652D70E0970141E050E0CE010B960E946A
:1009B0000000892B09F407C1F6018081918101961D
:1009C00091838083AE01455F5F4FBE016F5F7F4FB4
:1009D000C4010E940000F4C0652D70E0970140E062
:1009E00050E0CE010B960E940000892B09F4EBC069
:1009F000D6018D919C91119701968D939C93AE0198
:100A0000455F5F4FBE016F5F7F4FC4010E940000D2
:100A1000D7C0652D70E0970140E050E0CE010B9605
:100A20000E940000892B09F4CEC0F60180819181DB
:100A3000019691838083AE01455F5F4FBE016F5F7A
:100A40007F4FC4010E940000BBC0652D70E097017C
:100A500040E050E0CE010B960E940000892B09F483
:100A6000B2C0D601ED91FC911197CF0101968D9303
:100A70009C9320811CC0970140E050E060EF70E043
:100A8000CE010B960E940000892B09F49CC0F60150
:100A9000808191810196918380838B859C85892BB0
:100AA00029F420E030E04EE850E084C028E7AE01B1
:100AB000455F5F4FBE016F5F7F4FC4010E94000022
:100AC0007FC0A501400F511F652D70E09701CE0139
:100AD0000B960E940000892B09F475C0D6018D91F8
:100AE0009C91119701968D939C9373C0652D70E036
:100AF000A701CE010B960E94EA09892B09F463C075
:100B0000D601ED91FC911197CF0101968D939C93A5
:100B10002081AE01455F5F4FBE016F5F7F4FC40113
:100B20000E945A004DC0B0E85B124DC0F6018081B2
:100B30009181019691838083D701ED91FC9111976A
:100B4000CF0102968D939C93808120C0B0E85B1208
:100B50003AC0F60180819181019691838083D7010B
:100B6000ED91FC911197CF0102968D939C9340815A
:100B7000518120E030E01EC0B0E85B1224C0F601D5
:100B8000208131812F5F3F4F318320838B870DC0C0
:100B900085E28B87D6016D927C921A8219821E8221
:100BA0001D828FEF9FEF9C838B8321E030E0AE01AD
:100BB000455F5F4FBE016F5F7F4FC4010E94000021
:100BC0008A0D9B1D07C0F60180819181019691835A
:0C0BD0008083C5012E96EFE00C94460ACD
:100BDC008F929F92AF92BF92CF92DF92EF92FF9241
:100BEC000F931F938B019C0157E136952795179511
:100BFC0007955A95D1F71127A8014F57510947313D
:100C0C0051050CF045C057FD2DC00FEF1FEF2FE71E
:100C1C0030E004C035952795179507954A95D2F77E
:100C2C004801590186229722A822B92289288A28AC
:100C3C008B2871F197FF07C0DC01CB01800F911F4E
:100C4C00A21FB31F02C0DC01CB01009510952095AB
:100C5C00309580239123A223B323482F392F2A2F99
:100C6C005B2F1AC097FF0FC08B019C01000F111F47
:100C7C00221F331F012B022B032B51F040E030E0DD
:100C8C0020E85FEB09C040E030E020E050E004C019
:100C9C00462F372F282F592F642F732F822F952FE4
:100CAC001F910F91FF90EF90DF90CF90BF90AF907E
:060CBC009F908F90089547
:100CC20010C00E94390B58F00E94320B40F029F4F8
:100CD2005F3F29F00C945C0B51110C94410B0C9466
:100CE200740B0E94A80968F39923B1F3552391F379
:100CF200951B550BBB27AA2762177307840738F089
:100D02009F5F5F4F220F331F441FAA1FA9F335D0E5
:100D12000E2E3AF0E0E832D091505040E695001C99
:100D2200CAF72BD0FE2F29D0660F771F881FBB1F53
:100D3200261737074807AB07B0E809F0BB0B802D31
:100D4200BF01FF2793585F4F3AF09E3F510578F05D
:100D52000C945C0B0C94410B5F3FE4F3983ED4F38C
:100D6200869577956795B795F7959F5FC9F7880F31
:100D7200911D9695879597F90895E1E0660F771F83
:100D8200881FBB1F621773078407BA0720F0621B14
:0E0D9200730B840BBA0BEE1F88F7E0950895E3
:100DA0000FC00E94320B38F00E94390B20F09523BF
:100DB00011F00C945C0B0C94740B11240C94410BEB
:100DC0000E94A80970F3959FC1F3950F50E0551F3D
:100DD000629FF001729FBB27F00DB11D639FAA2790
:100DE000F00DB11DAA1F649F6627B00DA11D661FDF
:100DF000829F2227B00DA11D621F739FB00DA11D00
:100E0000621F839FA00D611D221F749F3327A00DB9
:100E1000611D231F849F600D211D822F762F6A2F55
:100E200011249F5750409AF0F1F088234AF0EE0FBA
:100E3000FF1FBB1F661F771F881F91505040A9F7E7
:100E40009E3F510580F00C945C0B0C94410B5F3F6E
:100E5000E4F3983ED4F3869577956795B795F79523
:100E6000E7959F5FC1F7FE2B880F911D969587959B
:040E700097F9089551
:100E740011C00E94320B38F00E94390B20F039F473
:100E84009F3F19F426F40C94740B0EF4E095E7FBE1
:100E94000C945C0BE92F0E94A80958F3BA17620757
:100EA40073078407950720F079F4A6F50C94400B9A
:100EB4000EF4E0950B2EBA2FA02D0B01B901900171
:100EC4000C01CA01A0011124FF27591B99F0593FB5
:100ED40050F4503E68F11A16F040A22F232F342FFD
:100EE4004427585FF3CF469537952795A795F0404B
:100EF4005395C9F77EF41F16BA0B620B730B840B60
:100F0400BAF09150A1F0FF0FBB1F661F771F881F17
:100F1400C2F70EC0BA0F621F731F841F48F487956F
:100F240077956795B795F7959E3F08F0B0CF939561
:0E0F3400880F08F09927EE0F9795879508957E
:100F4200CF93DF93CDB7DEB72A970FB6F894DEBF03
:100F52000FBECDBF0E94100B0E94C10A0F2EF0ECF3
:100F6200BF2EF02D0F2EF8E8CF2EF0E0DF2EF02D61
:100F7200CE0101967C01B6B83699FECF84B105B197
:100F820010E0102F0027080F111D80E80E94FA0AB6
:100F9200B801660F771F660F771F600F711F072E4C
:100FA200000C880B990B0E943D0820E030EC4FE7C3
:100FB20054E40E946C0B9F938F937F936F93DF9205
:100FC200CF92FF92EF920E949E0AC7010E94D10A1D
:0C0FD2000FB6F894DEBF0FBECDBFCDCF30
:100FDE000F931F93CF93DF93DB01109719F48FEFCD
:100FEE009FEF3DC02D913C91119730FF25C0169675
:100FFE004D915C91179714962D913C911597421730
:10100E00530778F41296ED91FC9113978083129604
:10101E002D913C9113972F5F3F4F13963C932E9338
:10102E00129716962D913C9117972F5F3F4F17965B
:10103E003C932E93169713C01C96ED91FC911D9721
:10104E00309769F2EB01092F182F0995892B39F684
:10105E008E819F8101969F838E83812F902FDF91AA
:08106E00CF911F910F9108952D
:10107600E89409C097FB3EF490958095709561952C
:101086007F4F8F4F9F4F9923A9F0F92F96E9BB27E2
:101096009395F695879577956795B795F111F8CF5E
:1010A600FAF4BB0F11F460FF1BC06F5F7F4F8F4FC9
:1010B6009F4F16C0882311F096E911C0772321F0BF
:1010C6009EE8872F762F05C0662371F096E8862F57
:1010D60070E060E02AF09A95660F771F881FDAF7AE
:0A10E600880F9695879597F90895F5
:1010F000A2E8B0E0EEE7F8E00C942D0A5C014A01AA
:10110000CF57DF4F79836883C158D040C12CD12C91
:10111000CF57DF4FE881F981C158D04080818823C3
:10112000E9F07401860120E830E0AE014F5F5F4FC7
:10113000BE016F577F4FC5010E94F0038C0D9D1DAE
:101140008C159D054CF48FE490E0909361008093A2
:1011500060008FEF9FEF03C06C01DACFC601CE575E
:08116000DF4FECE00C94490A9A
:10116800A0E1B0E0EAEBF8E00C94330AFB01BA0125
:10117800AE014F5F5F4F7A0140E1D7011D924A955A
:10118800E9F742E051E05A8349839C838B83F7FF58
:1011980009C08FE490E090936100809360008FEF26
:1011A8009FEF14C0A9018C013197FE83ED83C7011D
:1011B8000E945E0A4F8158852D813E814217530750
:1011C80008F49A01F801E20FF31F10826096E6E036
:0411D8000C944F0A1A
:1011DC00A0E0B0E0E4EFF8E00C942D0A6C015B01A8
:1011EC007A01E901480181E08822992400FD03C0BD
:1011FC004217530750F0A701B501C6010E940A0A15
:10120C00EC16FD0610F0C70117C08E010E191F0950
:10121C000115110541F0B60180E290E00E94EF0744
:10122C0001501109F5CF8114910429F4A701B501DE
:10123C00C6010E940A0ACE01CDB7DEB7ECE00C94D1
:02124C00490A4D
:10124E000E94B00988F09F5798F0B92F9927B7518F
:10125E00B0F0E1F0660F771F881F991F1AF0BA954C
:10126E00C9F714C0B13091F00E94400BB1E008955F
:10127E000C94400B672F782F8827B85F39F0B93F51
:10128E00CCF3869577956795B395D9F73EF49095FF
:0E129E008095709561957F4F8F4F9F4F0895FB
:1012AC00DC01ED91FC91119780818A3221F080E074
:1012BC0090E03AE00EC03196ED93FC93DB01ED919A
:1012CC00FC911197CF0102968D939C938081918113
:1012DC000895ED91FC911197208120532A3068F4E8
:1012EC00389FA001399F500D1124CA01820F911D06
:0C12FC0031961196FC93EE93ECCF089510
:10130800990F0008550FAA0BE0E8FEEF161617060E
:10131800E807F907C0F012161306E407F50798F076
:10132800621B730B840B950B39F40A2661F0232B8F
:10133800242B252B21F408950A2609F4A140A6950B
:081348008FEF811D811D089546
:1013500057FD9058440F551F59F05F3F71F0479566
:10136000880F97FB991F61F09F3F79F0879508954B
:10137000121613061406551FF2CF4695F1DF08C06A
:10138000161617061806991FF1CF86957105610587
:041390000894089520
:10139400CF93DF93EC0190E0E92FF0E0EE0FFF1F15
:1013A400EE59FF4F8081811102C081810EC0A88156
:1013B400B9812C91821305C091811196B983A883B8
:1013C40001C09F5F9B3040F3892FDF91CF91089537
:1013D400FA0160387105CCF0623871051CF063388D
:1013E400710599F4A081B1819D012C5F3F4F318338
:1013F40020834D915D916D917C91FC0140835183DB
:101404006283738381E090E0089580E090E0089522
:10141400A0E0B0E0E0E1FAE00C94310A6C01EB01E9
:101424008A017B01E40EF51ECE15DF0541F089919A
:10143400B601082E000C990B0E94EF07F5CFC801E6
:0A144400CDB7DEB7E8E00C944D0AC6
:10144E002F923F924F925F926F927F928F929F92C6
:10145E00AF92BF92CF92DF92EF92FF920F931F93B4
:10146E00CF93DF93CDB7DEB7CA1BDB0B0FB6F89465
:08147E00DEBF0FBECDBF0994D3
:101486002A88398848885F846E847D848C849B840E
:10149600AA84B984C884DF80EE80FD800C811B811C
:1014A600AA81B981CE0FD11D0FB6F894DEBF0FBE4B
:0614B600CDBFED01089519
:1014BC00A2E0B0E0E4E6FAE00C94350A8C015A8321
:1014CC004983AE014F5F5F4F0E947808F80120817D
:1014DC0024FF02C08FEF9FEF2296E4E00C94510A98
:1014EC0097FB072E16F4009407D077FD09D00E94C5
:1014FC008A0A07FC05D03EF4909581959F4F08957C
:08150C00709561957F4F089571
:10151400AA1BBB1B51E107C0AA1FBB1FA617B70715
:1015240010F0A61BB70B881F991F5A95A9F7809531
:081534009095BC01CD01089562
:10153C00A0E0B0E0E4EAFAE00C94370AAE01475FB1
:10154C005F4F6F8178858D819E810E94470BE2E011
:04155C000C94530A8E
:10156000092E0394000C11F4882352F0BB0F40F4B1
:10157000BF2B11F460FF04C06F5F7F4F8F4F9F4FF1
:021580000895CC
:1015820081E00E94FA0A88E30E94FA0A86E00E9439
:10159200FA0A8EE00E94FA0A80E80E94FA0A089586
:1015A200CF93DF93EC018881882331F021960E944A
:0E15B200EE0A89918111FBCFDF91CF91089550
:1015C000FC01AF014F5F5F4F2081222311F0FA0130
:0C15D000F8CF9F01281B390BC9010895BA
:1015DC0088BB80E682BB8FE19EE40197F1F700C0E7
:0815EC00000080E282BB0895BB
:1015F40088BB80E482BB8FE19EE40197F1F700C0D1
:06160400000012BA089577
:10160A00EC010E947C0B0E947B0BCE010E947D0B99
:06161A00CE010E94790BD5
:101620001ABA8FEF81BB87BB80E587B980EC86B99A
:0216300008951B
:10163200FC01480F591FE417F50711F06193FBCF26
:02164200089509
:10164400FC01DB012D91BD0121932111FACF0895F5
:101654009C01215431092A31310508F4806208952E
:0E16640000240A9416161706180609060895A3
:0E16720000240A9412161306140605060895A5
:0E168000E894BB2766277727CB0197F90895DA
:0E168E009A01AB016FEF7FE70E94B408089548
:0E169C005058BB27AA270E943A070C94B00AA8
:0E16AA000E9427096894B1110C94410B089519
:0C16B80097F99F6780E870E060E00895FB
:0A16C4000E94840908F481E00895F3
:0A16CE000E94840908F48FEF0895CC
:0816D8000E9461060C94B00AA7
:0816E0000E94D0060C94B00A30
:0616E8009FEF80EC089565
:0416EE000C94000058
:0416F2000E945800FA
:0216F600089555
:0216F800089553
:0216FA00089551
:1016FC0068076C094C836A9074A07AC00080688873
:06170C0000846C820081E4
:10171200494E4600696E66004E414E006E616E0093
:0617220025302E326600A6
:06172800286E696C290027
:00000001FF
